S01500005155544D535F436861726765722E737265635A
S113000071C000007FC00000FAC200007BC0000085
S113001079C0000077C0000075C0000073C0000004
S113002071C000006FC000006DC000006BC0000014
S113003069C0000067C0000065C0000063C0000024
S113004061C00000E7C200005DC000005BC00000AA
S113005059C0000057C0000055C0000027C300006D
S113006051C000004BC50000A7C500004BC00000F4
S113007049C0000047C0000045C0000043C0000064
S113008041C000003FC000003DC000003BC0000074
S113009064C50000BFC5000035C0000033C00000C7
S11300A031C000002FC000002DC000002BC0000094
S11300B029C0000027C0000025C0000023C00000A4
S11300C021C000001FC000001DC000001BC00000B4
S11300D019C0000017C0000015C0000013C00000C4
S11300E011C0000011241FBECFEFD1E2DEBFCDBF8F
S11300F024E0A0E0B2E001C01D92AD38B207E1F700
S1130100E6D114C67DCF8823C9F020E0E8E0F1E011
S113011030E2908193279083AFE1BEE41197F1F729
S113012000C00000908193279083AFE1BEE4119753
S1130130F1F700C000002F5F2813EBCFE8E0F1E0F7
S113014080818F7D80830895E8E0F1E080818F7D58
S113015080830895E8E0F1E08081806280830895DF
S1130160E9E6F0E080818A60808383E08DBB809340
S1130170680080E880936B0080936C00089582ECA3
S11301808DB91EB887E08093010183E0809302015A
S113019087E684B981E085B988E180930A011092E9
S11301A00B0198EC9AB91AB898E097B918B810925C
S11301B0040181B982B980E2809307018093080128
S11301C0CFCF089514BC85E085BD81E080936E0097
S11301D0109280008DE08093810088E391E09093F9
S11301E089008093880082E080936F0008952E9A9E
S11301F02D9A08952E982D980895FCDFEFECF2E0E7
S113020080818E7F80830895DF92EF92FF920F9317
S11302101F93CF93DF93CDB7DEB728970FB6F8942B
S1130220DEBF0FBECDBF062FE42E813019F0833020
S113023021F14CC081E0A8D3D82E811101C08ADFFE
S1130240E6EBF3E08081918199838A8384819581AF
S11302509B838C8380858D831E821F82188614EF76
S1130260E12E15EEF12E06E018E19E012F5F3F4FBF
S113027048E06D2D81E0A1D329C081E085D34E2DC6
S113028050E060E070E0032E3DE0440F551F661F10
S1130290771F3A95D1F7302D41607A6010E020E065
S11302A030E00F2EF2E1000F111F221F331FFA95C9
S11302B0D1F7F02D78018901E42AF52A062B172BB2
S11302C02FEC32E044E0682F82E077D328960FB613
S11302D0F894DEBF0FBECDBFDF91CF911F910F9178
S11302E0FF90EF90DF900895CF93FC01218121309E
S11302F009F03FC0A6EBB3E0828190E0982F8827F5
S11303002381820F911D11969C938E93848190E09A
S1130310982F88272581820F911D15969C938E9383
S11303201497C681CC23DCF462DFC6FF04C0F59ABF
S11303301092BE0304C0F59881E08093BE03C5FF0C
S113034007C0F79AEFECF2E080818160808311C0EE
S1130350F798EFECF2E080818E7F80830AC0F598F5
S1130360EFECF2E080818E7F808381E08093BE0396
S113037041DFF69ACF910895EF92FF920F931F9366
S1130380CF93DF93CDB7DEB728970FB6F894DEBFCF
S11303900FBECDBF809100028F5F8093000294E472
S11303A0998396E09A8392E09B838C83E6EBF3E057
S11303B0828193819D838E83868197819F838887A1
S11303C08E010F5F1F4F7E0189E0E80EF11CF801DA
S11303D081918F0169D40E151F05C9F728960FB6B0
S11303E0F894DEBF0FBECDBFDF91CF911F910F9167
S11303F0FF90EF900895CF93DF93EC0175DFBCDF9E
S11304001882DF91CF910895843421F481E08093A0
S113041032020DC090913202913049F4E0913102E0
S11304209E0F90933102F0E0EF5FFD4F8083E091E7
S11304303102E83058F0F0E0E050FE4F10821092A4
S113044031021092320281E092E0D5CF0895CF922A
S1130450DF92EF92FF92CF93DF93EB0169017A0170
S113046081E0EED1B701A601457E50757871452B28
S1130470462B472BF9F0E6EBF3E0488150E0542F8C
S113048044279981490F511D538342834A8150E087
S1130490542F44279B81490F511D578346839C81C8
S11304A09187282F237040E06CE281E08DD1F39A8C
S11304B081E006C0F1FE03C0F49A81E001C080E04F
S11304C0DF91CF91FF90EF90DF90CF900895CF937D
S11304D0DF93CDB7DEB72D970FB6F894DEBF0FBE0E
S11304E0CDBF8FE39CE90197F1F700C0000047DE20
S11304F02BDE80E09BE4BCD3FBD281E07DD17894F9
S113050040E06CE281E041D181E08093BE0310922F
S1130510CF0258DE0F2EF6EBEF2EF3E0FF2EF02D78
S1130520F3D3882311F0F6D36FDFF70180858111AF
S113053002C00ADE01C00EDEF09BF2CF81E0C1D220
S113054082958695869583708230D1F0833071F1DF
S1130550813009F052C08E01075F1F4F9E012F5F4B
S11305603F4FAE01435F5F4F61E67BD129853A85FA
S11305704B855C85BE016F5F7F4F8D8568DF3DC015
S11305808E01075F1F4F9E012F5F3F4FAE01435FF8
S11305905F4F61E781E065D129853A854B855C85AC
S11305A0BE016F5F7F4F8D8552DF27C08E01075FCD
S11305B01F4F9E012F5F3F4FAE01435F5F4F61E6C8
S11305C081E04FD129853A854B855C85BE016F5FFB
S11305D07F4F8D853CDF9E012F5F3F4FAE01435F10
S11305E05F4F61E781E03DD129853A854B855C8584
S11305F0BE016F5F7F4F8D852ADFF09891CF1F92E8
S11306000F920FB60F921124F09A0F900FBE0F9015
S11306101F9018951F920F920FB60F9211240BB6CC
S11306200F922F933F934F935F936F937F938F9387
S11306309F93AF93BF93EF93FF9380913302909175
S113064034020196909334028093330280913302F2
S1130650909134028C30910519F0489731F009C01B
S113066040E062E081E0D0DD04C041E061E083E08D
S1130670CBDD8091330290913402C19724F0109223
S1130680340210923302FF91EF91BF91AF919F9189
S11306908F917F916F915F914F913F912F910F9027
S11306A00BBE0F900FBE0F901F9018951F920F92C4
S11306B00FB60F9211240BB60F922F933F934F93C3
S11306C05F936F937F938F939F93AF93BF93EF93B6
S11306D0FF93F59B06C0F49B04C0F39B02C0F699FC
S11306E086DD8BB58C35B0F0F39B02C0F39803C064
S11306F084DD84E008DDF49B02C0F49803C07DDD52
S113070084E001DDF69B02C0F69803C076DD84E048
S1130710FADC1BBCFF91EF91BF91AF919F918F9138
S11307207F916F915F914F913F912F910F900BBEED
S11307300F900FBE0F901F901895823051F08430A7
S113074071F0813069F4E2E0F1E080818E7F808392
S11307500895E2E0F1E080818D7F808308952898F8
S11307600895823051F0843071F0813069F4E2E010
S1130770F1E08081816080830895E2E0F1E080818E
S1130780826080830895289A08951F93CF93DF93FE
S1130790C82F162FD42FD1DF82E0A4D1812FA2D16C
S11307A08D2FA0D18C2FDDDFDF91CF911F91089584
S11307B0CF93DF93C82FD62FC0DF8D2F93D18C2FEB
S11307C0D0DFDF91CF9108950F931F93CF93DF93E1
S11307D0C82F062FD42F122FB0DF85E083D1802FAE
S11307E081D1812F7FD18D2F7DD18C2FBADFDF91E5
S11307F0CF911F910F910895CF93C82F60ECD8DF4C
S113080020EE40E86FE08C2FDFDF44E06AE28C2FBB
S1130810BCDF4AEC69E28C2FB8DF41E068E28C2F40
S1130820B4DF43E06BE28C2FB0DF41E06DE08C2F4E
S1130830ACDF20EE40E06FE08C2FC6DFCF9108954F
S1130840CF93DF93C82F79DF80EA4CD180E04AD17F
S1130850D82F80E047D18C2F84DF8D2FDF91CF916B
S113086008957F928F929F92AF92BF92CF92DF9220
S1130870EF92FF920F931F93CF93DF93CDB7DEB721
S11308802D970FB6F894DEBF0FBECDBF782E4A0168
S11308905901613728F40F2EF0E9FF2EF02D04C022
S11308A00F2EF4E9FF2EF02D872D47DF8F2D1AD15F
S11308B0CE0101967C016E019EE0C90ED11C80E040
S11308C011D1F70181937F01EC15FD05C1F72A8150
S11308D0898190E0A0E0B0E0072E75E1880F991FB0
S11308E0AA1FBB1F7A95D1F7702D3C81832B422F11
S11308F0407E50E060E070E0032E3DE0440F551F61
S1130900661F771F3A95D1F7302D842B952BA62B94
S1130910B72B2370A22B2B81922BF8018083918318
S1130920A283B3834D814F70F401408350E0BE0134
S11309306A5F7F4FC501F1D1872D13DF2D960FB666
S1130940F894DEBF0FBECDBFDF91CF911F910F9101
S1130950FF90EF90DF90CF90BF90AF909F908F90DB
S11309607F900895CF93DF93C82FD62FE6DE83E0E0
S1130970B9D08D2FB7D080E0B5D0D82F8C2FF1DE31
S11309808D2FDF91CF910895CF93C82F60E3EADFD5
S113099083FF0CC060E48C2FE5DF83FF09C060E5B2
S11309A08C2FE0DF83FF06C080E005C080E303C036
S11309B080E401C080E5CF9108954F925F926F92D9
S11309C07F92AF92BF92CF92DF92EF92FF920F93FA
S11309D01F93CF93DF93B82EA62ED42F690127013E
S11309E03801662309F45EC043E0CFDEB801A701F5
S11309F0032E35E176956795579547953A95D1F746
S1130A00302D61E06A0D8B2DC0DEB801A701032EE5
S1130A103DE076956795579547953A95D1F7302DF2
S1130A20407E862D8370482B486062E06A0D8B2DD2
S1130A30ACDE7727612F502F4F2D63E06A0D8B2D8D
S1130A40A4DE4E2D64E06A0D8B2D9FDE4D2F65E0F4
S1130A506A0D8B2D9ADEDD23A9F08601C6E0CA0D4E
S1130A60D150ED2EF12C8FEFE81AF80AEC0CFD1C96
S1130A70F80141918F016C2F8B2D87DECF5F0E150E
S1130A801F05B1F78A2D85958595859585958350A4
S1130A9061E070E002C0660F771F8A95E2F7606834
S1130AA08B2D86DEDF91CF911F910F91FF90EF90F8
S1130AB0DF90CF90BF90AF907F906F905F904F90FA
S1130AC00895CF93DF93C82F38DE80EB0BD080E0FE
S1130AD009D0D82F80E006D08C2F43DE8D2FDF91F4
S1130AE0CF9108958EBD0DB407FEFDCF8EB5089548
S1130AF081E58CBD81E08DBD1EBC08951F920F92CF
S1130B000FB60F9211240BB60F922F938F939F93CE
S1130B10EF93FF938091C0002091C6008871E0910B
S1130B207C02EF5FEF7190917B02E91739F0E0935B
S1130B307C02F0E0E158FD4F208301C082E0809305
S1130B407A02FF91EF919F918F912F910F900BBE9D
S1130B500F900FBE0F901F9018951F920F920FB613
S1130B600F9211240BB60F922F938F939F93EF93B1
S1130B70FF938091C8002091CE008871E0913702E4
S1130B80EF5FEF7190913602E91739F0E093370285
S1130B90F0E0E65CFD4F208301C082E080933502E3
S1130BA0FF91EF919F918F912F910F900BBE0F901A
S1130BB00FBE0F901F9018951F920F920FB60F92B1
S1130BC011240BB60F928F939F93EF93FF93909101
S1130BD07E0280917D02981769F0E0917D02EF5FBB
S1130BE0EF71E0937D02F0E0E156FD4F8081809348
S1130BF0C60005C0E1ECF0E080818F7D8083FF9129
S1130C00EF919F918F910F900BBE0F900FBE0F909D
S1130C101F9018951F920F920FB60F9211240BB6C6
S1130C200F928F939F93EF93FF939091390280914A
S1130C303802981769F0E0913802EF5FEF71E093A2
S1130C403802F0E0E65AFD4F80818093CE0005C063
S1130C50E9ECF0E080818F7D8083FF91EF919F919B
S1130C608F910F900BBE0F900FBE0F901F90189591
S1130C7010927E0210927D0210927C0210927B02EE
S1130C80E1E6F0E080E8808310821092C50087E6F8
S1130C908093C40082E08093C00088E18093C10007
S1130CA086E08093C200089590918C04911115C040
S1130CB020917E022F5F2F7190917D022917E1F31D
S1130CC0E22FF0E0E156FD4F808320937E02E1ECB9
S1130CD0F0E080818062808308959130A1F42091B6
S1130CE039022F5F2F71909138022917E1F3E22F17
S1130CF0F0E0E65AFD4F808320933902E9ECF0E0FE
S1130D0080818062808308958091C000881F882735
S1130D10881F08958091C6000895FB01DC0102C07C
S1130D2001900D9241505040D8F70895F894FFCFA8
S9030000FC
